{
  "_format": "hh-sol-artifact-1",
  "contractName": "EventTicketingSystem",
  "sourceName": "contracts/EventTicketingSystem.sol",
  "abi": [
    {
      "inputs": [],
      "stateMutability": "nonpayable",
      "type": "constructor"
    },
    {
      "anonymous": false,
      "inputs": [
        {
          "indexed": false,
          "internalType": "uint256",
          "name": "eventId",
          "type": "uint256"
        }
      ],
      "name": "EventCancelled",
      "type": "event"
    },
    {
      "anonymous": false,
      "inputs": [
        {
          "indexed": false,
          "internalType": "uint256",
          "name": "eventId",
          "type": "uint256"
        },
        {
          "indexed": false,
          "internalType": "string",
          "name": "eventName",
          "type": "string"
        },
        {
          "indexed": false,
          "internalType": "address",
          "name": "organiser",
          "type": "address"
        }
      ],
      "name": "EventCreated",
      "type": "event"
    },
    {
      "anonymous": false,
      "inputs": [
        {
          "indexed": false,
          "internalType": "uint256",
          "name": "eventId",
          "type": "uint256"
        },
        {
          "indexed": false,
          "internalType": "string",
          "name": "newName",
          "type": "string"
        },
        {
          "indexed": false,
          "internalType": "uint256",
          "name": "newTicketPrice",
          "type": "uint256"
        },
        {
          "indexed": false,
          "internalType": "enum EventTicketingSystem.EventStatus",
          "name": "newStatus",
          "type": "uint8"
        }
      ],
      "name": "EventUpdated",
      "type": "event"
    },
    {
      "anonymous": false,
      "inputs": [
        {
          "indexed": false,
          "internalType": "uint256",
          "name": "eventId",
          "type": "uint256"
        },
        {
          "indexed": false,
          "internalType": "address",
          "name": "eventowner",
          "type": "address"
        }
      ],
      "name": "NothingForWithdrawl",
      "type": "event"
    },
    {
      "anonymous": false,
      "inputs": [
        {
          "indexed": false,
          "internalType": "uint256",
          "name": "eventId",
          "type": "uint256"
        },
        {
          "indexed": false,
          "internalType": "address",
          "name": "buyer",
          "type": "address"
        }
      ],
      "name": "RefundAlreadyCompleted",
      "type": "event"
    },
    {
      "anonymous": false,
      "inputs": [
        {
          "indexed": false,
          "internalType": "uint256",
          "name": "eventId",
          "type": "uint256"
        },
        {
          "indexed": false,
          "internalType": "address",
          "name": "buyer",
          "type": "address"
        },
        {
          "indexed": false,
          "internalType": "uint256",
          "name": "refundAmount",
          "type": "uint256"
        }
      ],
      "name": "RefundProcessed",
      "type": "event"
    },
    {
      "anonymous": false,
      "inputs": [
        {
          "indexed": false,
          "internalType": "uint256",
          "name": "eventId",
          "type": "uint256"
        },
        {
          "indexed": false,
          "internalType": "address",
          "name": "buyer",
          "type": "address"
        },
        {
          "indexed": false,
          "internalType": "uint256",
          "name": "ticketQuantity",
          "type": "uint256"
        }
      ],
      "name": "TicketPurchased",
      "type": "event"
    },
    {
      "anonymous": false,
      "inputs": [
        {
          "indexed": false,
          "internalType": "uint256",
          "name": "eventId",
          "type": "uint256"
        },
        {
          "indexed": false,
          "internalType": "address",
          "name": "eventowner",
          "type": "address"
        },
        {
          "indexed": false,
          "internalType": "uint256",
          "name": "withdrawable_amount",
          "type": "uint256"
        }
      ],
      "name": "WithdrawComplete",
      "type": "event"
    },
    {
      "inputs": [
        {
          "internalType": "address",
          "name": "organiserAddress",
          "type": "address"
        }
      ],
      "name": "addOrganiser",
      "outputs": [],
      "stateMutability": "nonpayable",
      "type": "function"
    },
    {
      "inputs": [
        {
          "internalType": "uint256",
          "name": "eventId",
          "type": "uint256"
        }
      ],
      "name": "cancelEvent",
      "outputs": [],
      "stateMutability": "nonpayable",
      "type": "function"
    },
    {
      "inputs": [
        {
          "internalType": "uint256",
          "name": "eventId",
          "type": "uint256"
        },
        {
          "internalType": "address",
          "name": "_ticketHolder",
          "type": "address"
        }
      ],
      "name": "cancelTicket",
      "outputs": [],
      "stateMutability": "nonpayable",
      "type": "function"
    },
    {
      "inputs": [
        {
          "internalType": "uint256",
          "name": "eventId",
          "type": "uint256"
        },
        {
          "internalType": "string",
          "name": "eventName",
          "type": "string"
        },
        {
          "internalType": "uint256",
          "name": "eventTicketPrice",
          "type": "uint256"
        },
        {
          "internalType": "uint256",
          "name": "eventTotalTickets",
          "type": "uint256"
        }
      ],
      "name": "createEvent",
      "outputs": [],
      "stateMutability": "nonpayable",
      "type": "function"
    },
    {
      "inputs": [
        {
          "internalType": "uint256",
          "name": "eventId",
          "type": "uint256"
        },
        {
          "internalType": "string",
          "name": "newName",
          "type": "string"
        },
        {
          "internalType": "uint256",
          "name": "newTicketPrice",
          "type": "uint256"
        }
      ],
      "name": "editEvent",
      "outputs": [],
      "stateMutability": "nonpayable",
      "type": "function"
    },
    {
      "inputs": [
        {
          "internalType": "uint256",
          "name": "",
          "type": "uint256"
        }
      ],
      "name": "events",
      "outputs": [
        {
          "internalType": "uint256",
          "name": "eventId",
          "type": "uint256"
        },
        {
          "internalType": "string",
          "name": "eventName",
          "type": "string"
        },
        {
          "internalType": "address",
          "name": "eventOrganiser",
          "type": "address"
        },
        {
          "internalType": "uint256",
          "name": "eventTicketPrice",
          "type": "uint256"
        },
        {
          "internalType": "uint256",
          "name": "eventTotalTickets",
          "type": "uint256"
        },
        {
          "internalType": "uint256",
          "name": "eventAvailableTickets",
          "type": "uint256"
        },
        {
          "internalType": "enum EventTicketingSystem.EventStatus",
          "name": "status",
          "type": "uint8"
        }
      ],
      "stateMutability": "view",
      "type": "function"
    },
    {
      "inputs": [],
      "name": "getLatestEventId",
      "outputs": [
        {
          "internalType": "uint256",
          "name": "",
          "type": "uint256"
        }
      ],
      "stateMutability": "view",
      "type": "function"
    },
    {
      "inputs": [
        {
          "internalType": "address",
          "name": "_ticketHolder",
          "type": "address"
        }
      ],
      "name": "getMyEventList",
      "outputs": [
        {
          "internalType": "uint256[]",
          "name": "",
          "type": "uint256[]"
        }
      ],
      "stateMutability": "view",
      "type": "function"
    },
    {
      "inputs": [
        {
          "internalType": "uint256",
          "name": "eventId",
          "type": "uint256"
        }
      ],
      "name": "getTicketHolder",
      "outputs": [
        {
          "components": [
            {
              "internalType": "address",
              "name": "ticketBuyer",
              "type": "address"
            },
            {
              "internalType": "uint256",
              "name": "purchasedTickets",
              "type": "uint256"
            }
          ],
          "internalType": "struct EventTicketingSystem.TicketHolder[]",
          "name": "",
          "type": "tuple[]"
        }
      ],
      "stateMutability": "view",
      "type": "function"
    },
    {
      "inputs": [
        {
          "internalType": "uint256",
          "name": "eventId",
          "type": "uint256"
        },
        {
          "internalType": "address",
          "name": "_address",
          "type": "address"
        }
      ],
      "name": "getTicketQuantity",
      "outputs": [
        {
          "internalType": "uint256",
          "name": "",
          "type": "uint256"
        }
      ],
      "stateMutability": "view",
      "type": "function"
    },
    {
      "inputs": [
        {
          "internalType": "address",
          "name": "_address",
          "type": "address"
        }
      ],
      "name": "isAdmin",
      "outputs": [
        {
          "internalType": "bool",
          "name": "",
          "type": "bool"
        }
      ],
      "stateMutability": "view",
      "type": "function"
    },
    {
      "inputs": [
        {
          "internalType": "address",
          "name": "_address",
          "type": "address"
        }
      ],
      "name": "isEventOrgraniser",
      "outputs": [
        {
          "internalType": "bool",
          "name": "",
          "type": "bool"
        }
      ],
      "stateMutability": "view",
      "type": "function"
    },
    {
      "inputs": [],
      "name": "listAllEventId",
      "outputs": [
        {
          "internalType": "uint256[]",
          "name": "",
          "type": "uint256[]"
        }
      ],
      "stateMutability": "view",
      "type": "function"
    },
    {
      "inputs": [
        {
          "internalType": "uint256",
          "name": "eventId",
          "type": "uint256"
        },
        {
          "internalType": "uint256",
          "name": "ticketQuantity",
          "type": "uint256"
        }
      ],
      "name": "purchaseTicket",
      "outputs": [],
      "stateMutability": "payable",
      "type": "function"
    },
    {
      "inputs": [
        {
          "internalType": "uint256",
          "name": "eventId",
          "type": "uint256"
        }
      ],
      "name": "startSellingTickets",
      "outputs": [],
      "stateMutability": "nonpayable",
      "type": "function"
    },
    {
      "inputs": [
        {
          "internalType": "uint256",
          "name": "eventId",
          "type": "uint256"
        }
      ],
      "name": "stopSellingTickets",
      "outputs": [],
      "stateMutability": "nonpayable",
      "type": "function"
    },
    {
      "inputs": [
        {
          "internalType": "uint256",
          "name": "eventId",
          "type": "uint256"
        }
      ],
      "name": "withdrawEventTicketMoney",
      "outputs": [],
      "stateMutability": "nonpayable",
      "type": "function"
    }
  ],
  "bytecode": "0x608060405234801561001057600080fd5b50336000806101000a81548173ffffffffffffffffffffffffffffffffffffffff021916908373ffffffffffffffffffffffffffffffffffffffff16021790555060018081905550613b03806100676000396000f3fe6080604052600436106100fe5760003560e01c80638ac12b8d11610095578063bdbbb0cb11610064578063bdbbb0cb1461036f578063c81fa71f1461038b578063e05aabeb146103b6578063f7a034b6146103df578063f93694fb14610408576100fe565b80638ac12b8d146102c95780639aa14f14146102f25780639bde25db1461031b578063b0d13da614610344576100fe565b80632bafa505116100d15780632bafa505146101e95780633f69babd146102265780635ac3d2bb1461024f5780635eaeb1d71461028c576100fe565b80630b7914301461010357806322632bba1461014657806324d7806c1461016f5780632b3a5e63146101ac575b600080fd5b34801561010f57600080fd5b5061012a60048036038101906101259190612b2c565b610431565b60405161013d9796959493929190613568565b60405180910390f35b34801561015257600080fd5b5061016d60048036038101906101689190612b2c565b610528565b005b34801561017b57600080fd5b5061019660048036038101906101919190612b03565b6109d8565b6040516101a391906132d4565b60405180910390f35b3480156101b857600080fd5b506101d360048036038101906101ce9190612b2c565b610a30565b6040516101e09190613290565b60405180910390f35b3480156101f557600080fd5b50610210600480360381019061020b9190612b03565b610d3d565b60405161021d91906132d4565b60405180910390f35b34801561023257600080fd5b5061024d60048036038101906102489190612b2c565b610d93565b005b34801561025b57600080fd5b5061027660048036038101906102719190612b55565b61124b565b604051610283919061344f565b60405180910390f35b34801561029857600080fd5b506102b360048036038101906102ae9190612b03565b61134d565b6040516102c091906132b2565b60405180910390f35b3480156102d557600080fd5b506102f060048036038101906102eb9190612b91565b61143b565b005b3480156102fe57600080fd5b5061031960048036038101906103149190612b03565b6116a6565b005b34801561032757600080fd5b50610342600480360381019061033d9190612b2c565b61178f565b005b34801561035057600080fd5b50610359611a3e565b604051610366919061344f565b60405180910390f35b61038960048036038101906103849190612c73565b611a48565b005b34801561039757600080fd5b506103a0611ea6565b6040516103ad91906132b2565b60405180910390f35b3480156103c257600080fd5b506103dd60048036038101906103d89190612b2c565b611efe565b005b3480156103eb57600080fd5b5061040660048036038101906104019190612b55565b6121ad565b005b34801561041457600080fd5b5061042f600480360381019061042a9190612bf8565b612673565b005b600460205280600052604060002060009150905080600001549080600101805461045a90613943565b80601f016020809104026020016040519081016040528092919081815260200182805461048690613943565b80156104d35780601f106104a8576101008083540402835291602001916104d3565b820191906000526020600020905b8154815290600101906020018083116104b657829003601f168201915b5050505050908060020160009054906101000a900473ffffffffffffffffffffffffffffffffffffffff16908060030154908060040154908060050154908060060160009054906101000a900460ff16905087565b8060008054906101000a900473ffffffffffffffffffffffffffffffffffffffff1673ffffffffffffffffffffffffffffffffffffffff163373ffffffffffffffffffffffffffffffffffffffff1614806105cc5750600560003373ffffffffffffffffffffffffffffffffffffffff1673ffffffffffffffffffffffffffffffffffffffff16815260200190815260200160002060009054906101000a900460ff165b61060b576040517f08c379a00000000000000000000000000000000000000000000000000000000081526004016106029061334f565b60405180910390fd5b60008054906101000a900473ffffffffffffffffffffffffffffffffffffffff1673ffffffffffffffffffffffffffffffffffffffff163373ffffffffffffffffffffffffffffffffffffffff1614806106c657503373ffffffffffffffffffffffffffffffffffffffff166004600083815260200190815260200160002060020160009054906101000a900473ffffffffffffffffffffffffffffffffffffffff1673ffffffffffffffffffffffffffffffffffffffff16145b610705576040517f08c379a00000000000000000000000000000000000000000000000000000000081526004016106fc9061336f565b60405180910390fd5b81600060046000838152602001908152602001600020600001541415610760576040517f08c379a0000000000000000000000000000000000000000000000000000000008152600401610757906132ef565b60405180910390fd5b60006004600085815260200190815260200160002090506002808111156107b0577f4e487b7100000000000000000000000000000000000000000000000000000000600052602160045260246000fd5b8160060160009054906101000a900460ff1660028111156107fa577f4e487b7100000000000000000000000000000000000000000000000000000000600052602160045260246000fd5b141561083b576040517f08c379a00000000000000000000000000000000000000000000000000000000081526004016108329061338f565b60405180910390fd5b6000805b82600701805490508110156108d057600083600701828154811061088c577f4e487b7100000000000000000000000000000000000000000000000000000000600052603260045260246000fd5b906000526020600020906002020190506000816001015411156108bc578060010154836108b9919061377a565b92505b5080806108c890613975565b91505061083f565b506000811115610997578160030154816108ea91906137d0565b90508160020160009054906101000a900473ffffffffffffffffffffffffffffffffffffffff1673ffffffffffffffffffffffffffffffffffffffff166108fc829081150290604051600060405180830381858888f19350505050158015610956573d6000803e3d6000fd5b507fa213098d9afc3ccc79a9ea1a2da67db9458b74eb6bca992890fe1be3d1f2b55785338360405161098a939291906134f3565b60405180910390a16109d1565b7f76ebb1db6a81705acf741efbd7dbba2819c4bb3a7d1c70a48fb792b0d2e8f1b585336040516109c892919061346a565b60405180910390a15b5050505050565b60008173ffffffffffffffffffffffffffffffffffffffff1660008054906101000a900473ffffffffffffffffffffffffffffffffffffffff1673ffffffffffffffffffffffffffffffffffffffff16149050919050565b60608160008054906101000a900473ffffffffffffffffffffffffffffffffffffffff1673ffffffffffffffffffffffffffffffffffffffff163373ffffffffffffffffffffffffffffffffffffffff161480610ad65750600560003373ffffffffffffffffffffffffffffffffffffffff1673ffffffffffffffffffffffffffffffffffffffff16815260200190815260200160002060009054906101000a900460ff165b610b15576040517f08c379a0000000000000000000000000000000000000000000000000000000008152600401610b0c9061334f565b60405180910390fd5b60008054906101000a900473ffffffffffffffffffffffffffffffffffffffff1673ffffffffffffffffffffffffffffffffffffffff163373ffffffffffffffffffffffffffffffffffffffff161480610bd057503373ffffffffffffffffffffffffffffffffffffffff166004600083815260200190815260200160002060020160009054906101000a900473ffffffffffffffffffffffffffffffffffffffff1673ffffffffffffffffffffffffffffffffffffffff16145b610c0f576040517f08c379a0000000000000000000000000000000000000000000000000000000008152600401610c069061336f565b60405180910390fd5b600060046000858152602001908152602001600020600001541415610c69576040517f08c379a0000000000000000000000000000000000000000000000000000000008152600401610c60906133ef565b60405180910390fd5b60046000848152602001908152602001600020600701805480602002602001604051908101604052809291908181526020016000905b82821015610d3157838290600052602060002090600202016040518060400160405290816000820160009054906101000a900473ffffffffffffffffffffffffffffffffffffffff1673ffffffffffffffffffffffffffffffffffffffff1673ffffffffffffffffffffffffffffffffffffffff16815260200160018201548152505081526020019060010190610c9f565b50505050915050919050565b6000600560008373ffffffffffffffffffffffffffffffffffffffff1673ffffffffffffffffffffffffffffffffffffffff16815260200190815260200160002060009054906101000a900460ff169050919050565b8060008054906101000a900473ffffffffffffffffffffffffffffffffffffffff1673ffffffffffffffffffffffffffffffffffffffff163373ffffffffffffffffffffffffffffffffffffffff161480610e375750600560003373ffffffffffffffffffffffffffffffffffffffff1673ffffffffffffffffffffffffffffffffffffffff16815260200190815260200160002060009054906101000a900460ff165b610e76576040517f08c379a0000000000000000000000000000000000000000000000000000000008152600401610e6d9061334f565b60405180910390fd5b60008054906101000a900473ffffffffffffffffffffffffffffffffffffffff1673ffffffffffffffffffffffffffffffffffffffff163373ffffffffffffffffffffffffffffffffffffffff161480610f3157503373ffffffffffffffffffffffffffffffffffffffff166004600083815260200190815260200160002060020160009054906101000a900473ffffffffffffffffffffffffffffffffffffffff1673ffffffffffffffffffffffffffffffffffffffff16145b610f70576040517f08c379a0000000000000000000000000000000000000000000000000000000008152600401610f679061336f565b60405180910390fd5b6000600460008481526020019081526020016000209050600280811115610fc0577f4e487b7100000000000000000000000000000000000000000000000000000000600052602160045260246000fd5b8160060160009054906101000a900460ff16600281111561100a577f4e487b7100000000000000000000000000000000000000000000000000000000600052602160045260246000fd5b141561104b576040517f08c379a00000000000000000000000000000000000000000000000000000000081526004016110429061338f565b60405180910390fd5b60028160060160006101000a81548160ff02191690836002811115611099577f4e487b7100000000000000000000000000000000000000000000000000000000600052602160045260246000fd5b02179055507fdc3cb569b066460f4a22dffa05317bdcce5d3826382ed49a21f13e5fa2063d39836040516110cd919061344f565b60405180910390a160005b8160070180549050811015611245576000826007018281548110611125577f4e487b7100000000000000000000000000000000000000000000000000000000600052603260045260246000fd5b9060005260206000209060020201905060008160000160009054906101000a900473ffffffffffffffffffffffffffffffffffffffff16905060008260010154856003015461117491906137d0565b905060008360010154111561122f578173ffffffffffffffffffffffffffffffffffffffff166108fc829081150290604051600060405180830381858888f193505050501580156111c9573d6000803e3d6000fd5b5082600101548560050160008282546111e2919061377a565b92505081905550600083600101819055507f79ff6a60b3e21b3630b207e2a7b0b50b69b197d3d7ca776108ed2afb8fbac8dc878383604051611226939291906134bc565b60405180910390a15b505050808061123d90613975565b9150506110d8565b50505050565b60008060046000858152602001908152602001600020905060005b816007018054905081101561133e5760008260070182815481106112b3577f4e487b7100000000000000000000000000000000000000000000000000000000600052603260045260246000fd5b906000526020600020906002020190508473ffffffffffffffffffffffffffffffffffffffff168160000160009054906101000a900473ffffffffffffffffffffffffffffffffffffffff1673ffffffffffffffffffffffffffffffffffffffff16141561132a5780600101549350505050611347565b50808061133690613975565b915050611266565b50600080925050505b92915050565b60606000600360008473ffffffffffffffffffffffffffffffffffffffff1673ffffffffffffffffffffffffffffffffffffffff16815260200190815260200160002080549050111561142f57600360008373ffffffffffffffffffffffffffffffffffffffff1673ffffffffffffffffffffffffffffffffffffffff16815260200190815260200160002080548060200260200160405190810160405280929190818152602001828054801561142357602002820191906000526020600020905b81548152602001906001019080831161140f575b50505050509050611436565b6060809150505b919050565b8260008054906101000a900473ffffffffffffffffffffffffffffffffffffffff1673ffffffffffffffffffffffffffffffffffffffff163373ffffffffffffffffffffffffffffffffffffffff1614806114df5750600560003373ffffffffffffffffffffffffffffffffffffffff1673ffffffffffffffffffffffffffffffffffffffff16815260200190815260200160002060009054906101000a900460ff165b61151e576040517f08c379a00000000000000000000000000000000000000000000000000000000081526004016115159061334f565b60405180910390fd5b60008054906101000a900473ffffffffffffffffffffffffffffffffffffffff1673ffffffffffffffffffffffffffffffffffffffff163373ffffffffffffffffffffffffffffffffffffffff1614806115d957503373ffffffffffffffffffffffffffffffffffffffff166004600083815260200190815260200160002060020160009054906101000a900473ffffffffffffffffffffffffffffffffffffffff1673ffffffffffffffffffffffffffffffffffffffff16145b611618576040517f08c379a000000000000000000000000000000000000000000000000000000000815260040161160f9061336f565b60405180910390fd5b6000600460008681526020019081526020016000209050838160010190805190602001906116479291906129ce565b508281600301819055507fbb78e994ef3fff2c78c95eeb4de8171ce43b308687b95442afb506e9db3674418585858460060160009054906101000a900460ff1660405161169794939291906135de565b60405180910390a15050505050565b60008054906101000a900473ffffffffffffffffffffffffffffffffffffffff1673ffffffffffffffffffffffffffffffffffffffff163373ffffffffffffffffffffffffffffffffffffffff1614611734576040517f08c379a000000000000000000000000000000000000000000000000000000000815260040161172b906133af565b60405180910390fd5b6001600560008373ffffffffffffffffffffffffffffffffffffffff1673ffffffffffffffffffffffffffffffffffffffff16815260200190815260200160002060006101000a81548160ff02191690831515021790555050565b8060008054906101000a900473ffffffffffffffffffffffffffffffffffffffff1673ffffffffffffffffffffffffffffffffffffffff163373ffffffffffffffffffffffffffffffffffffffff1614806118335750600560003373ffffffffffffffffffffffffffffffffffffffff1673ffffffffffffffffffffffffffffffffffffffff16815260200190815260200160002060009054906101000a900460ff165b611872576040517f08c379a00000000000000000000000000000000000000000000000000000000081526004016118699061334f565b60405180910390fd5b60008054906101000a900473ffffffffffffffffffffffffffffffffffffffff1673ffffffffffffffffffffffffffffffffffffffff163373ffffffffffffffffffffffffffffffffffffffff16148061192d57503373ffffffffffffffffffffffffffffffffffffffff166004600083815260200190815260200160002060020160009054906101000a900473ffffffffffffffffffffffffffffffffffffffff1673ffffffffffffffffffffffffffffffffffffffff16145b61196c576040517f08c379a00000000000000000000000000000000000000000000000000000000081526004016119639061336f565b60405180910390fd5b60016004600084815260200190815260200160002060060160006101000a81548160ff021916908360028111156119cc577f4e487b7100000000000000000000000000000000000000000000000000000000600052602160045260246000fd5b02179055507fbb78e994ef3fff2c78c95eeb4de8171ce43b308687b95442afb506e9db367441826004600085815260200190815260200160002060010160046000868152602001908152602001600020600301546001604051611a32949392919061362a565b60405180910390a15050565b6000600154905090565b81600060046000838152602001908152602001600020600001541415611aa3576040517f08c379a0000000000000000000000000000000000000000000000000000000008152600401611a9a906132ef565b60405180910390fd5b82828060046000848152602001908152602001600020600501541015611afe576040517f08c379a0000000000000000000000000000000000000000000000000000000008152600401611af59061332f565b60405180910390fd5b8460006002811115611b39577f4e487b7100000000000000000000000000000000000000000000000000000000600052602160045260246000fd5b6004600083815260200190815260200160002060060160009054906101000a900460ff166002811115611b95577f4e487b7100000000000000000000000000000000000000000000000000000000600052602160045260246000fd5b1415611bd6576040517f08c379a0000000000000000000000000000000000000000000000000000000008152600401611bcd9061342f565b60405180910390fd5b600280811115611c0f577f4e487b7100000000000000000000000000000000000000000000000000000000600052602160045260246000fd5b6004600083815260200190815260200160002060060160009054906101000a900460ff166002811115611c6b577f4e487b7100000000000000000000000000000000000000000000000000000000600052602160045260246000fd5b1415611cac576040517f08c379a0000000000000000000000000000000000000000000000000000000008152600401611ca3906133cf565b60405180910390fd5b60006004600088815260200190815260200160002090506000868260030154611cd591906137d0565b905080341015611d1a576040517f08c379a0000000000000000000000000000000000000000000000000000000008152600401611d119061340f565b60405180910390fd5b86826005016000828254611d2e919061382a565b925050819055506000611d418989612839565b905080611e9b57600060405180604001604052803373ffffffffffffffffffffffffffffffffffffffff1681526020018a81525090508360070181908060018154018082558091505060019003906000526020600020906002020160009091909190915060008201518160000160006101000a81548173ffffffffffffffffffffffffffffffffffffffff021916908373ffffffffffffffffffffffffffffffffffffffff160217905550602082015181600101555050600360003373ffffffffffffffffffffffffffffffffffffffff1673ffffffffffffffffffffffffffffffffffffffff1681526020019081526020016000208a90806001815401808255809150506001900390600052602060002001600090919091909150557fdbaaf4c87ce30816c961a81d110622a3227ede77953d4383d514ff88ab2e0fd38a338b604051611e91939291906134f3565b60405180910390a1505b505050505050505050565b60606002805480602002602001604051908101604052809291908181526020018280548015611ef457602002820191906000526020600020905b815481526020019060010190808311611ee0575b5050505050905090565b8060008054906101000a900473ffffffffffffffffffffffffffffffffffffffff1673ffffffffffffffffffffffffffffffffffffffff163373ffffffffffffffffffffffffffffffffffffffff161480611fa25750600560003373ffffffffffffffffffffffffffffffffffffffff1673ffffffffffffffffffffffffffffffffffffffff16815260200190815260200160002060009054906101000a900460ff165b611fe1576040517f08c379a0000000000000000000000000000000000000000000000000000000008152600401611fd89061334f565b60405180910390fd5b60008054906101000a900473ffffffffffffffffffffffffffffffffffffffff1673ffffffffffffffffffffffffffffffffffffffff163373ffffffffffffffffffffffffffffffffffffffff16148061209c57503373ffffffffffffffffffffffffffffffffffffffff166004600083815260200190815260200160002060020160009054906101000a900473ffffffffffffffffffffffffffffffffffffffff1673ffffffffffffffffffffffffffffffffffffffff16145b6120db576040517f08c379a00000000000000000000000000000000000000000000000000000000081526004016120d29061336f565b60405180910390fd5b60006004600084815260200190815260200160002060060160006101000a81548160ff0219169083600281111561213b577f4e487b7100000000000000000000000000000000000000000000000000000000600052602160045260246000fd5b02179055507fbb78e994ef3fff2c78c95eeb4de8171ce43b308687b95442afb506e9db3674418260046000858152602001908152602001600020600101600460008681526020019081526020016000206003015460006040516121a1949392919061362a565b60405180910390a15050565b8160008054906101000a900473ffffffffffffffffffffffffffffffffffffffff1673ffffffffffffffffffffffffffffffffffffffff163373ffffffffffffffffffffffffffffffffffffffff1614806122515750600560003373ffffffffffffffffffffffffffffffffffffffff1673ffffffffffffffffffffffffffffffffffffffff16815260200190815260200160002060009054906101000a900460ff165b612290576040517f08c379a00000000000000000000000000000000000000000000000000000000081526004016122879061334f565b60405180910390fd5b60008054906101000a900473ffffffffffffffffffffffffffffffffffffffff1673ffffffffffffffffffffffffffffffffffffffff163373ffffffffffffffffffffffffffffffffffffffff16148061234b57503373ffffffffffffffffffffffffffffffffffffffff166004600083815260200190815260200160002060020160009054906101000a900473ffffffffffffffffffffffffffffffffffffffff1673ffffffffffffffffffffffffffffffffffffffff16145b61238a576040517f08c379a00000000000000000000000000000000000000000000000000000000081526004016123819061336f565b60405180910390fd5b60006004600085815260200190815260200160002090506002808111156123da577f4e487b7100000000000000000000000000000000000000000000000000000000600052602160045260246000fd5b8160060160009054906101000a900460ff166002811115612424577f4e487b7100000000000000000000000000000000000000000000000000000000600052602160045260246000fd5b1415612465576040517f08c379a000000000000000000000000000000000000000000000000000000000815260040161245c9061338f565b60405180910390fd5b60005b816007018054905081101561266c5760008260070182815481106124b5577f4e487b7100000000000000000000000000000000000000000000000000000000600052603260045260246000fd5b906000526020600020906002020190508473ffffffffffffffffffffffffffffffffffffffff168160000160009054906101000a900473ffffffffffffffffffffffffffffffffffffffff1673ffffffffffffffffffffffffffffffffffffffff1614156126585760008160000160009054906101000a900473ffffffffffffffffffffffffffffffffffffffff16905060008260010154856003015461255c91906137d0565b905060008360010154111561261b578173ffffffffffffffffffffffffffffffffffffffff166108fc829081150290604051600060405180830381858888f193505050501580156125b1573d6000803e3d6000fd5b5082600101548560050160008282546125ca919061377a565b92505081905550600083600101819055507f79ff6a60b3e21b3630b207e2a7b0b50b69b197d3d7ca776108ed2afb8fbac8dc88838360405161260e939291906134bc565b60405180910390a1612655565b7f126965afeda8b8ed6724ada05b0b74db2d6a0749aa9e591b428dd97093e29e13888360405161264c929190613493565b60405180910390a15b50505b50808061266490613975565b915050612468565b5050505050565b60006004600086815260200190815260200160002060000154146126cc576040517f08c379a00000000000000000000000000000000000000000000000000000000081526004016126c39061330f565b60405180910390fd5b6000600460008681526020019081526020016000209050848160000181905550838160010190805190602001906127049291906129ce565b50338160020160006101000a81548173ffffffffffffffffffffffffffffffffffffffff021916908373ffffffffffffffffffffffffffffffffffffffff16021790555082816003018190555081816004018190555081816005018190555060008160060160006101000a81548160ff021916908360028111156127b1577f4e487b7100000000000000000000000000000000000000000000000000000000600052602160045260246000fd5b02179055506002859080600181540180825580915050600190039060005260206000200160009091909190915055600160008154809291906127f290613975565b91905055507f40fb05b814a900c99fa0a76d919dfdeaf3389540e4ca70f97ba40ca9a38f379785853360405161282a9392919061352a565b60405180910390a15050505050565b60008060046000858152602001908152602001600020905060005b81600701805490508110156129c1573373ffffffffffffffffffffffffffffffffffffffff168260070182815481106128b6577f4e487b7100000000000000000000000000000000000000000000000000000000600052603260045260246000fd5b906000526020600020906002020160000160009054906101000a900473ffffffffffffffffffffffffffffffffffffffff1673ffffffffffffffffffffffffffffffffffffffff1614156129ae5783826007018281548110612941577f4e487b7100000000000000000000000000000000000000000000000000000000600052603260045260246000fd5b90600052602060002090600202016001016000828254612961919061377a565b925050819055507fdbaaf4c87ce30816c961a81d110622a3227ede77953d4383d514ff88ab2e0fd385338660405161299b939291906134f3565b60405180910390a16001925050506129c8565b80806129b990613975565b915050612854565b5060009150505b92915050565b8280546129da90613943565b90600052602060002090601f0160209004810192826129fc5760008555612a43565b82601f10612a1557805160ff1916838001178555612a43565b82800160010185558215612a43579182015b82811115612a42578251825591602001919060010190612a27565b5b509050612a509190612a54565b5090565b5b80821115612a6d576000816000905550600101612a55565b5090565b6000612a84612a7f846136a7565b613676565b905082815260208101848484011115612a9c57600080fd5b612aa7848285613901565b509392505050565b600081359050612abe81613a9f565b92915050565b600082601f830112612ad557600080fd5b8135612ae5848260208601612a71565b91505092915050565b600081359050612afd81613ab6565b92915050565b600060208284031215612b1557600080fd5b6000612b2384828501612aaf565b91505092915050565b600060208284031215612b3e57600080fd5b6000612b4c84828501612aee565b91505092915050565b60008060408385031215612b6857600080fd5b6000612b7685828601612aee565b9250506020612b8785828601612aaf565b9150509250929050565b600080600060608486031215612ba657600080fd5b6000612bb486828701612aee565b935050602084013567ffffffffffffffff811115612bd157600080fd5b612bdd86828701612ac4565b9250506040612bee86828701612aee565b9150509250925092565b60008060008060808587031215612c0e57600080fd5b6000612c1c87828801612aee565b945050602085013567ffffffffffffffff811115612c3957600080fd5b612c4587828801612ac4565b9350506040612c5687828801612aee565b9250506060612c6787828801612aee565b91505092959194509250565b60008060408385031215612c8657600080fd5b6000612c9485828601612aee565b9250506020612ca585828601612aee565b9150509250929050565b6000612cbb8383613243565b60408301905092915050565b6000612cd38383613272565b60208301905092915050565b612ce8816138b9565b82525050565b612cf78161385e565b82525050565b612d068161385e565b82525050565b6000612d178261370c565b612d218185613747565b9350612d2c836136d7565b8060005b83811015612d5d578151612d448882612caf565b9750612d4f8361372d565b925050600181019050612d30565b5085935050505092915050565b6000612d7582613717565b612d7f8185613758565b9350612d8a836136e7565b8060005b83811015612dbb578151612da28882612cc7565b9750612dad8361373a565b925050600181019050612d8e565b5085935050505092915050565b612dd181613870565b82525050565b612de0816138cb565b82525050565b6000612df182613722565b612dfb8185613769565b9350612e0b818560208601613910565b612e1481613a7a565b840191505092915050565b60008154612e2c81613943565b612e368186613769565b94506001821660008114612e515760018114612e6357612e96565b60ff1983168652602086019350612e96565b612e6c856136f7565b60005b83811015612e8e57815481890152600182019150602081019050612e6f565b808801955050505b50505092915050565b6000612eac601483613769565b91507f4576656e7420446f6573204e6f742045786973740000000000000000000000006000830152602082019050919050565b6000612eec602183613769565b91507f4576656e742077697468207468697320494420616c726561647920657869737460008301527f73000000000000000000000000000000000000000000000000000000000000006020830152604082019050919050565b6000612f52602a83613769565b91507f4e6f7420456e6f756768205469636b65747320417661696c61626c6520466f7260008301527f20546865204576656e74000000000000000000000000000000000000000000006020830152604082019050919050565b6000612fb8603383613769565b91507f4f6e6c792041646d696e2f4576656e74204f7267616e69736572732063616e2060008301527f706572666f726d207468697320616374696f6e000000000000000000000000006020830152604082019050919050565b600061301e604183613769565b91507f41646d696e204f72204576656e74204f7267616e697365722057686f204f776e60008301527f20546865204576656e742043616e204f6e6c79204d6f64696679204576656e7460208301527f73000000000000000000000000000000000000000000000000000000000000006040830152606082019050919050565b60006130aa601a83613769565b91507f4576656e7420697320616c72656164792063616e63656c6c65640000000000006000830152602082019050919050565b60006130ea603583613769565b91507f4f6e6c792041646d696e2043616e20416464204f7267616e697365727320636160008301527f6e20706572666f726d207468697320616374696f6e00000000000000000000006020830152604082019050919050565b6000613150600f83613769565b91507f4576656e742043616e63656c6c656400000000000000000000000000000000006000830152602082019050919050565b6000613190601483613769565b91507f4576656e7420646f6573206e6f742065786973740000000000000000000000006000830152602082019050919050565b60006131d0601783613769565b91507f496e73756666696369656e742066756e64732073656e740000000000000000006000830152602082019050919050565b6000613210601d83613769565b91507f4576656e74205469636b65742053616c65204e6f7420537461727465640000006000830152602082019050919050565b6040820160008201516132596000850182612cee565b50602082015161326c6020850182613272565b50505050565b61327b816138af565b82525050565b61328a816138af565b82525050565b600060208201905081810360008301526132aa8184612d0c565b905092915050565b600060208201905081810360008301526132cc8184612d6a565b905092915050565b60006020820190506132e96000830184612dc8565b92915050565b6000602082019050818103600083015261330881612e9f565b9050919050565b6000602082019050818103600083015261332881612edf565b9050919050565b6000602082019050818103600083015261334881612f45565b9050919050565b6000602082019050818103600083015261336881612fab565b9050919050565b6000602082019050818103600083015261338881613011565b9050919050565b600060208201905081810360008301526133a88161309d565b9050919050565b600060208201905081810360008301526133c8816130dd565b9050919050565b600060208201905081810360008301526133e881613143565b9050919050565b6000602082019050818103600083015261340881613183565b9050919050565b60006020820190508181036000830152613428816131c3565b9050919050565b6000602082019050818103600083015261344881613203565b9050919050565b60006020820190506134646000830184613281565b92915050565b600060408201905061347f6000830185613281565b61348c6020830184612cfd565b9392505050565b60006040820190506134a86000830185613281565b6134b56020830184612cdf565b9392505050565b60006060820190506134d16000830186613281565b6134de6020830185612cdf565b6134eb6040830184613281565b949350505050565b60006060820190506135086000830186613281565b6135156020830185612cfd565b6135226040830184613281565b949350505050565b600060608201905061353f6000830186613281565b81810360208301526135518185612de6565b90506135606040830184612cfd565b949350505050565b600060e08201905061357d600083018a613281565b818103602083015261358f8189612de6565b905061359e6040830188612cfd565b6135ab6060830187613281565b6135b86080830186613281565b6135c560a0830185613281565b6135d260c0830184612dd7565b98975050505050505050565b60006080820190506135f36000830187613281565b81810360208301526136058186612de6565b90506136146040830185613281565b6136216060830184612dd7565b95945050505050565b600060808201905061363f6000830187613281565b81810360208301526136518186612e1f565b90506136606040830185613281565b61366d6060830184612dd7565b95945050505050565b6000604051905081810181811067ffffffffffffffff8211171561369d5761369c613a4b565b5b8060405250919050565b600067ffffffffffffffff8211156136c2576136c1613a4b565b5b601f19601f8301169050602081019050919050565b6000819050602082019050919050565b6000819050602082019050919050565b60008190508160005260206000209050919050565b600081519050919050565b600081519050919050565b600081519050919050565b6000602082019050919050565b6000602082019050919050565b600082825260208201905092915050565b600082825260208201905092915050565b600082825260208201905092915050565b6000613785826138af565b9150613790836138af565b9250827fffffffffffffffffffffffffffffffffffffffffffffffffffffffffffffffff038211156137c5576137c46139be565b5b828201905092915050565b60006137db826138af565b91506137e6836138af565b9250817fffffffffffffffffffffffffffffffffffffffffffffffffffffffffffffffff048311821515161561381f5761381e6139be565b5b828202905092915050565b6000613835826138af565b9150613840836138af565b925082821015613853576138526139be565b5b828203905092915050565b60006138698261388f565b9050919050565b60008115159050919050565b600081905061388a82613a8b565b919050565b600073ffffffffffffffffffffffffffffffffffffffff82169050919050565b6000819050919050565b60006138c4826138dd565b9050919050565b60006138d68261387c565b9050919050565b60006138e8826138ef565b9050919050565b60006138fa8261388f565b9050919050565b82818337600083830152505050565b60005b8381101561392e578082015181840152602081019050613913565b8381111561393d576000848401525b50505050565b6000600282049050600182168061395b57607f821691505b6020821081141561396f5761396e613a1c565b5b50919050565b6000613980826138af565b91507fffffffffffffffffffffffffffffffffffffffffffffffffffffffffffffffff8214156139b3576139b26139be565b5b600182019050919050565b7f4e487b7100000000000000000000000000000000000000000000000000000000600052601160045260246000fd5b7f4e487b7100000000000000000000000000000000000000000000000000000000600052602160045260246000fd5b7f4e487b7100000000000000000000000000000000000000000000000000000000600052602260045260246000fd5b7f4e487b7100000000000000000000000000000000000000000000000000000000600052604160045260246000fd5b6000601f19601f8301169050919050565b60038110613a9c57613a9b6139ed565b5b50565b613aa88161385e565b8114613ab357600080fd5b50565b613abf816138af565b8114613aca57600080fd5b5056fea264697066735822122072942a2002106c6c17c7019e70c0d3e839b1e9a88baf17944dff981f721b703564736f6c63430008000033",
  "linkReferences": {},
  "deployedLinkReferences": {}
}